:020000040800F2
:1000000000000420D9260008712600087326000885
:1000100075260008772600087926000800000000F1
:100020000000000000000000000000007B26000827
:100030007D260008000000007F26000881260008B9
:100040002927000829270008292700082927000850
:100050002927000829270008292700082927000840
:100060002927000829270008292700082927000830
:100070002927000829270008292700082927000820
:100080002927000829270008292700082927000810
:100090002927000829270008292700082927000800
:1000A00029270008292700082927000829270008F0
:1000B00029270008292700082927000829270008E0
:1000C00029270008292700082927000829270008D0
:1000D00029270008292700082927000829270008C0
:1000E00029270008292700082927000829270008B0
:1000F00029270008292700082927000829270008A0
:10010000292700082927000829270008292700088F
:10011000292700082927000829270008292700087F
:10012000292700082927000829270008292700086F
:100130002927000800000000000000000000000067
:100140000000000000000000000000002927000857
:10015000292700082927000829270008292700083F
:10016000292700082927000829270008292700082F
:1001700029270008292700080000000000000000CF
:10018000292700082927000829270008292700080F
:100190002927000829270008000000002927000857
:1001A00000000000000000000000000029270008F7
:1001B000292700082927000800000000000000008F
:1001C000000000000000000000000000000000002F
:1001D00000000000000000000000000029270008C7
:1001E00010B5054C237833B9044B13B10448AFF371
:1001F00000800123237010BD0C00002000000000CF
:100200008427000808B5034B1BB103490348AFF32B
:10021000008008BD000000001000002084270008B6
:1002200053B94AB9002908BF00281CBF4FF0FF315D
:100230004FF0FF3000F072B9ADF1080C6DE904CE5B
:1002400000F006F8DDF804E0DDE9022304B07047B1
:100250002DE9F047089E04468846002B4BD18A4280
:10026000154667D9B2FA82F24AB1C2F1200701FA03
:1002700002F320FA07F7954047EA030894404FEA53
:10028000154E230CB8FBFEF71FFA85FC0EFB1788F2
:1002900043EA084307FB0CF1994209D9EB1807F12F
:1002A000FF3080F01B81994240F21881023F2B44BD
:1002B0005B1AA4B2B3FBFEF00EFB103344EA034416
:1002C00000FB0CFCA44509D92C1900F1FF3380F088
:1002D0000781A44540F2048102382C4440EA0740DB
:1002E000A4EB0C0400271EB1D4400023C6E9004350
:1002F0003946BDE8F0878B4209D9002E00F0EB802B
:100300000027C6E9000138463946BDE8F087B3FA50
:1003100083F7002F47D18B4202D3824200F2FA804A
:10032000841A61EB030301209846002EE0D0C6E951
:100330000048DDE702B9FFDEB2FA82F2002A40F09F
:100340008F80491B4FEA154E1FFA85F80127B1FB34
:10035000FEFC230C0EFB1C1143EA014308FB0CF1CD
:10036000994207D9EB180CF1FF3002D2994200F202
:10037000CD808446591AA3B2B1FBFEF00EFB1014D7
:1003800043EA044408FB00F8A04507D92C1900F102
:10039000FF3302D2A04500F2B6801846A4EB080451
:1003A00040EA0C409FE7C7F1200CBB4022FA0CFE4C
:1003B0004EEA030E01FA07F420FA0CF521FA0CF3C9
:1003C0004FEA1E482543B3FBF8F92C0C08FB193300
:1003D0001FFA8EFA44EA034309FB0AF49C4202FA2C
:1003E00007F200FA07F10BD91EEB030309F1FF3006
:1003F00080F087809C4240F28480A9F10209734416
:100400001B1BADB2B3FBF8F008FB103345EA034405
:1004100000FB0AFAA24508D91EEB040400F1FF33E1
:100420006BD2A24569D90238744440EA0940A0FB66
:100430000289A4EB0A044C45C2464B4654D351D022
:10044000002E69D0B1EB0A0564EB030404FA0CFC3E
:10045000FD40FC404CEA0505C6E90054002747E78B
:10046000C2F1200320FA03F7954001FA02F021FAC5
:1004700003F34FEA154E3843010CB3FBFEF71FFAA6
:1004800085F80EFB173341EA034107FB08F38B4263
:1004900004FA02F407D9691807F1FF3C2FD28B4206
:1004A0002DD9023F2944CB1A81B2B3FBFEF00EFBDB
:1004B000103341EA034100FB08F38B4207D9691866
:1004C00000F1FF3C17D28B4215D902382944C91AD2
:1004D00040EA07473BE73746304609E70746E7E685
:1004E0001846FBE64145ABD2B8EB020A69EB0E02B7
:1004F00001381346A4E76046E9E7184695E76746E2
:10050000D1E781467CE702382C4447E7ACF1020C86
:100510002B442FE7384608E73746E9E6704700BF27
:1005200010B504460E4B18784FF47A73B3FBF0F312
:100530000C4A1068B0FBF3F000F024FA68B90F2CF5
:1005400001D901200AE0002221464FF0FF3000F0DF
:10055000E7F9034B5C60002000E0012010BD00BF04
:10056000000000200800002008B5032000F0C6F9B4
:100570000020FFF7D5FF01F02DFF002008BD00008F
:10058000034A1168034B1B780B441360704700BF8C
:100590002800002000000020014B1868704700BFB1
:1005A0002800002038B50446FFF7F6FF0546B4F1F1
:1005B000FF3F02D0044B1B781C44FFF7EDFF401BAC
:1005C000A042FAD338BD00BF00000020494B5A6852
:1005D00022F440325A605A6841680A435A600268FD
:1005E000536823F48073536002685368016943EAD7
:1005F000012353600268536823F04073536002681C
:10060000536881680B4353600268936823F4006366
:10061000936002689368C1680B439360826A364BAB
:100620009A4249D00268936823F07063936002682D
:100630009368816A0B4393600268936823F0405388
:10064000936002689368C16A0B4393600268936881
:1006500023F00203936002689368816943EA4103CF
:100660009360036A002B32D10268536823F400635D
:1006700053600268D36A23F47003D3620168CB6AC3
:10068000C269013A43EA0253CB620268936823F4D9
:100690000073936002689368016B43EA412393609F
:1006A0000268936823F480639360026893684169E9
:1006B00043EA8123936070470268936823F0706374
:1006C00093600268936823F040539360BEE702682A
:1006D000536843F4006353600268536823F4604333
:1006E000536001684B68426A013A43EA42334B6007
:1006F000BFE700BF002301400100000F20B310B589
:100700000446036C43B1236C13F0100F0AD0012090
:10071000002384F83C3010BD436480F83C3001F085
:1007200071FEF0E7226C094B134043F0020323648F
:100730002046FFF74BFF00206064236C23F0030387
:1007400043F001032364E3E701207047FDEEFFFF60
:1007500030B482B00023019390F83C30012B00F0BC
:10076000C080012380F83C300B68092B22D9056832
:10077000EA689BB203EB43031E3B072404FA03F32E
:1007800022EA0303EB600B68574A93420BD00568DB
:10079000EA688C689BB203EB43031E3B04FA03F345
:1007A0001343EB601BE00268D3688C6843EA046380
:1007B000D36014E005682A699BB203EB4303072466
:1007C00004FA03F322EA03032B6105682A698C68A3
:1007D0000B8803EB430304FA03F313432B614B68C9
:1007E000062B24D805686A6B03EB8303053B1F24A3
:1007F00004FA03F322EA03036B6305686A6B4B6830
:1008000003EB8303053B0C8804FA03F313436B6388
:100810000268364B9A423AD00268344B9A423FD033
:10082000002380F83C30184602B030BC70470C2BD7
:1008300016D805682A6B03EB8303233B1F2404FAB5
:1008400003F322EA03032B6305682A6B4B6803EB6F
:100850008303233B0C8804FA03F313432B63D7E78A
:100860000568EA6A03EB8303413B1F2404FA03F3A0
:1008700022EA0303EB620568EA6A4B6803EB830331
:10088000413B0C8804FA03F31343EB62C0E70B68A7
:10089000122BC1D1164A536843F480035360BBE75F
:1008A0000B68114A112B18BF9342B9D1104A5368F3
:1008B00043F4000353600A680B4B9A42B0D10D4BCE
:1008C0001B680D4AA2FB03239B0C03EB83035A0016
:1008D000019202E0019B013B0193019B002BF9D1A6
:1008E0009EE70220A0E700BF120000100020014098
:1008F000002301400800002083DE1B430649CB682B
:1009000023F4E0631B041B0C000200F4E0600343CB
:10091000024A1A43CA60704700ED00E00000FA0581
:1009200030B4154BDB68C3F30223C3F10704042C76
:1009300028BF04241D1D062D14D9033B4FF0FF359D
:1009400005FA04F421EA0401994005FA03F322EAC6
:1009500003031943002807DB0901C9B2074B1954E7
:1009600030BC70470023E9E700F00F000901C9B26D
:10097000034B1954F4E700BF00ED00E000E400E091
:1009800014ED00E00138B0F1807F0AD2064B5860C8
:10099000064AF02182F823100020986007221A608E
:1009A00070470120704700BF10E000E000ED00E05C
:1009B00000230F2B00F2D680F0B482B039E007227A
:1009C00000E00022B2403A430234674E46F8242049
:1009D000664A1468EA4302EA04064F6817F4803F47
:1009E00001D045EA0406614C2660646802EA040608
:1009F0004F6817F4003F01D045EA04065B4C66607F
:100A0000A46802EA04064F6817F4801F01D045EA83
:100A10000406564CA660E46822404E6816F4001F97
:100A200001D045EA0402514CE26001330F2B00F281
:100A3000968001229A400C6804EA0205AA42F4D189
:100A40004C68122C18BF022C10D1DE08083650F862
:100A500026C003F00704A7000F24BC402CEA040CB6
:100A60000C69BC4044EA0C0440F8264004685F006E
:100A70000326BE40F64306EA040C4C6804F0030467
:100A8000BC4044EA0C0404604C6804F1FF3C112CA7
:100A900018BFBCF1010F01D9122C11D1846806EAEC
:100AA000040CCC68BC4044EA0C048460446824EA2A
:100AB000020C4C68C4F300129A4042EA0C024260F5
:100AC000C26816408A68BA403243C2604A6812F06F
:100AD000805FAAD0264A546C44F480445464526C1B
:100AE00002F480420192019A9C08A61C1E4A52F808
:100AF000267003F0030296000F22B24027EA020795
:100B00001C4A90423FF45DAF02F5806290421AD0D9
:100B100002F58062904218D002F58062904216D0B1
:100B200002F58062904214D002F58062904212D0A9
:100B300002F58062904210D002F5806290423FF44C
:100B40003EAF08223EE701223CE702223AE70322B9
:100B500038E7042236E7052234E7062232E702B0FE
:100B6000F0BC7047704700BF00380140003C0140B6
:100B7000003802400000024012B909048161704748
:100B80008161704700287DD0F0B58BB0044690F8A5
:100B9000BD33E3B1032384F8BD33206801F050F97D
:100BA000254655F8107B6E460FCD0FC60FCD0FC6EC
:100BB00095E8030086E80300231D0ECB384601F0BC
:100BC00001F90021206801F041F900231AE080F8C2
:100BD000BC3301F005FDDDE7D900C81A82002244CC
:100BE000012082F83D0082F83C30A2F8423000201B
:100BF00082F83F0050649064CA1A9100214408654D
:100C00000133DBB20E2BE7D9002315E0D800C11A5F
:100C10008A002244002182F8FD1182F8FC3182F81A
:100C2000FF11C2F80412C2F80812C21A9000204440
:100C3000C0F810120133DBB20E2BE7D9254655F868
:100C4000107B6E460FCD0FC60FCD0FC695E8030083
:100C500086E80300231D0ECB384601F03DF9002342
:100C600084F83830012384F8BD33636A012B05D042
:100C7000206801F003FA00200BB0F0BD204600F020
:100C800003F8F5E701207047024603680121C0F828
:100C9000F813002082F8F0039A6942F000629A612A
:100CA000596D024A0A435A65704700BF030000109D
:100CB000024A136843F48073136070470070004069
:100CC00010B582B01B4B1A6C42F080521A641B6C38
:100CD00003F080530193019B174A136843F4803358
:100CE0001360FFF759FC0446134B5B6813F4803F15
:100CF00008D1FFF751FC001BB0F57A7FF4D903202F
:100D000002B010BD0C4A136843F400331360FFF7C0
:100D100043FC0446084B5B6813F4003F07D1FFF720
:100D20003BFC001BB0F57A7FF4D90320E8E70020F4
:100D3000E6E700BF0038024000700040002800F0E5
:100D4000DB8170B582B00446036813F0010F29D02F
:100D5000A24B9B6803F00C03042B1AD09F4B9B689B
:100D600003F00C03082B0FD06368B3F5803F40D02D
:100D7000002B54D1994B1A6822F480321A601A68F9
:100D800022F480221A6039E0944B5B6813F4800FE0
:100D9000EAD0924B1B6813F4003F03D06368002B2A
:100DA00000F0AC81236813F0020F75D08B4B9B6869
:100DB00013F00C0F5ED0894B9B6803F00C03082BDB
:100DC00053D0E368002B00F08A80844A136843F014
:100DD00001031360FFF7E0FB0546804B1B6813F02F
:100DE000020F73D1FFF7D8FB401B0228F5D903206F
:100DF00087E17A4A136843F48033136063682BB346
:100E0000FFF7CAFB0546754B1B6813F4003FC9D1B9
:100E1000FFF7C2FB401B6428F5D9032071E1B3F54D
:100E2000A02F09D06D4B1A6822F480321A601A681C
:100E300022F480221A60E1E7684B1A6842F48022AB
:100E40001A601A6842F480321A60D7E7FFF7A4FBF1
:100E50000546624B1B6813F4003FA3D0FFF79CFBD1
:100E6000401B6428F5D903204BE15C4B5B6813F40D
:100E7000800FA6D1594B1B6813F0020F04D0E36812
:100E8000012B01D001203CE1544A136823F0F80300
:100E9000216943EAC1031360236813F0080F46D0A9
:100EA000636983B34D4A536F43F001035367FFF700
:100EB00073FB0546494B5B6F13F0020F37D1FFF709
:100EC0006BFB401B0228F5D903201AE1434A136843
:100ED00023F0F803216943EAC1031360DCE73F4ACA
:100EE000136823F001031360FFF756FB05463B4BE5
:100EF0001B6813F0020FCFD0FFF74EFB401B0228F8
:100F0000F5D90320FDE0354A536F23F00103536701
:100F1000FFF742FB0546314B5B6F13F0020F06D023
:100F2000FFF73AFB401B0228F5D90320E9E02368CC
:100F300013F0040F7ED0294B1B6C13F0805F1ED181
:100F4000264B1A6C42F080521A641B6C03F08053DB
:100F50000193019B0125224B1B6813F4807F10D065
:100F6000A368012B21D0002B3CD11C4B1A6F22F01F
:100F700001021A671A6F22F004021A671AE00025AC
:100F8000E9E7174A136843F480731360FFF704FB23
:100F90000646134B1B6813F4807FE1D1FFF7FCFA80
:100FA000801B6428F5D90320ABE00C4A136F43F093
:100FB00001031367A3685BB3FFF7EEFA0646074B1E
:100FC0001B6F13F0020F34D1FFF7E6FA801B41F2DA
:100FD00088339842F3D9032093E000BF00380240E1
:100FE00000700040052B09D0484B1A6F22F0010217
:100FF0001A671A6F22F004021A67DBE7434B1A6F75
:1010000042F004021A671A6F42F001021A67D1E730
:10101000FFF7C2FA06463D4B1B6F13F0020F08D0D4
:10102000FFF7BAFA801B41F288339842F3D90320C4
:1010300067E0F5B9A369002B62D0344A926802F0E8
:101040000C02082A5FD0022B19D0304A136823F013
:1010500080731360FFF7A0FA04462C4B1B6813F053
:10106000007F47D0FFF798FA001B0228F5D903202C
:1010700047E0264A136C23F080531364DAE7234ACF
:10108000136823F080731360FFF786FA05461F4B41
:101090001B6813F0007F06D0FFF77EFA401B022882
:1010A000F5D903202DE0E369226A1343626A43EA1B
:1010B0008213A26A5208013A43EA0243E26A43EA0F
:1010C000026343F00053114A5360136843F0807386
:1010D0001360FFF761FA04460C4B1B6813F0007FA6
:1010E00006D1FFF759FA001B0228F5D9032008E0C2
:1010F000002006E0002004E001207047012000E00D
:10110000002002B070BD0120FBE700BF00380240A4
:10111000264B9B6803F00C03042B44D0082B01D012
:10112000234870472DE9F04B204B5A6802F03F02EC
:101130005B6813F4800F13D01C4B5968C1F38811FE
:1011400000231C48A1FB0001FFF76AF8174B5B68FE
:10115000C3F3014301335B00B0FBF3F0BDE8F08B58
:10116000124B5B68C3F388131E4600275C01002501
:10117000E41A65EB0705A90141EA9461A001001B8F
:1011800061EB0501CB0043EA5073C400A01943EBA7
:1011900007018B0243EA905384022046194600233C
:1011A000FFF73EF8D2E70348704700BF003802401F
:1011B0000024F40040787D01002800F0A28070B582
:1011C0000446524B1B6803F00F038B420CD24F4A6C
:1011D000136823F00F030B431360136803F00F032E
:1011E0008B4201D0012070BD236813F0020F17D08D
:1011F00013F0040F04D0464A936843F4E05393601D
:10120000236813F0080F04D0414A936843F4604305
:1012100093603F4A936823F0F003A0680343936010
:101220000D46236813F0010F31D06368012B20D0E5
:10123000022B25D0364A126812F0020F63D03449CF
:101240008A6822F0030213438B60FFF7A5F9064674
:101250002F4B9B6803F00C036268B3EB820F16D030
:10126000FFF79AF9801B41F288339842F0D90320A6
:10127000B9E7274A126812F4003FE0D10120B2E733
:10128000234A126812F0007FD9D10120ABE71F4B2F
:101290001B6803F00F03AB420CD91C4A136823F000
:1012A0000F032B431360136803F00F03AB4201D00D
:1012B000012098E7236813F0040F06D0144A9368BE
:1012C00023F4E053E1680B439360236813F0080FA5
:1012D00007D00F4A936823F46043216943EAC103AE
:1012E0009360FFF715FF0A4B9B68C3F30313094A8A
:1012F000D35CD840084B18600020FFF711F900209C
:1013000071E70120704701206DE700BF003C0240FB
:10131000003802409C27000808000020014B186894
:10132000704700BF0800002008B5FFF7F7FF044B27
:101330009B68C3F38223034AD35CD84008BD00BF37
:1013400000380240AC27000808B5FFF7E7FF044B60
:101350009B68C3F34233034AD35CD84008BD00BF47
:1013600000380240AC270008F0B583B0044603689B
:1013700013F0010F0CD0A44B9A6822F400029A607B
:101380009A68C16A0A439A60C36AC3B1002600E042
:101390000026236813F4002F15D09B4AD2F88C3016
:1013A00023F44013616B0B43C2F88C30636BB3F5CD
:1013B000801F06D0002B00F00581002504E00126E7
:1013C000E7E70126F6E70025236813F4801F0FD016
:1013D0008D4AD2F88C3023F44003A16B0B43C2F842
:1013E0008C30A36BB3F5800F00F0EE8003B90125BC
:1013F000236813F0200F40F0E980236813F0100FEA
:101400000CD0814BD3F88C2022F08072C3F88C2052
:10141000D3F88C20216B0A43C3F88C20236813F483
:10142000804F08D0784AD2F8903023F44033E16DF1
:101430000B43C2F89030236813F4004F08D0724A6F
:10144000D2F8903023F44023216E0B43C2F8903041
:10145000236813F4803F08D06B4AD2F8903023F40D
:101460004013616E0B43C2F89030236813F0400FB5
:1014700008D0654AD2F8903023F00303E16B0B43A8
:10148000C2F89030236813F0800F08D05E4AD2F87B
:10149000903023F00C03216C0B43C2F8903023688A
:1014A00013F4807F08D0584AD2F8903023F03003EC
:1014B000616C0B43C2F89030236813F4007F08D0AE
:1014C000514AD2F8903023F0C003A16C0B43C2F80C
:1014D0009030236813F4806F08D04B4AD2F89030D4
:1014E00023F44073E16C0B43C2F89030236813F48B
:1014F000006F08D0444AD2F8903023F44063216D45
:101500000B43C2F89030236813F4805F08D03E4A42
:10151000D2F8903023F44053616D0B43C2F8903001
:10152000236813F4005F08D0374AD2F8903023F4D0
:101530004043A16D0B43C2F89030236813F4001FA1
:101540000DD0314AD2F8903023F00063616F0B4325
:10155000C2F89030636FB3F1006F00F0A180236890
:1015600013F4802F08D0284AD2F8903023F040732B
:10157000E16E0B43C2F89030236813F4000F08D0DB
:10158000214AD2F8903023F08053A16F0B43C2F868
:101590009030236813F0806F08D01B4AD2F8903047
:1015A00023F00053E16F0B43C2F89030002E79D145
:1015B0002368B3F1007F75D0002D40F0E380002058
:1015C00003B0F0BD0125FFE601260FE70E4B1A6CB4
:1015D00042F080521A641B6C03F080530193019B0C
:1015E0000A4A136843F480731360FEF7D5FF074679
:1015F000064B1B6813F4807F0AD1FEF7CDFFC01B9A
:101600006428F5D90320DBE7003802400070004071
:101610008D4B1B6F13F4407315D0A26A02F4407215
:101620009A4210D0884B1A6F22F44072196F41F41D
:1016300080311967196F21F4803119671A671B6FA0
:1016400013F0010F12D1A36A03F44072B2F5407F88
:101650001DD07D4A936823F4F81393607A490B6F89
:10166000A26AC2F30B0213430B67C6E6FEF794FFB0
:101670000746754B1B6F13F0020FE4D1FEF78CFF8A
:10168000C01B41F288339842F3D9032098E76E4893
:10169000826822F4F8126D4919400A438260DDE73E
:1016A00001255CE7684A136823F080631360FEF746
:1016B00073FF0646644B1B6813F0006F06D0FEF7FD
:1016C0006BFF801B6428F5D9032079E7236813F0AA
:1016D000010F0ED0E36A63B95B4AD2F884306168C7
:1016E00003F0706343EA8113A16843EA0173C2F80F
:1016F0008430236813F4002F03D0626BB2F5801F8F
:1017000006D013F4801F19D0A36BB3F5800F15D149
:101710004D4AD2F884106068E3681B0643EA8013E0
:1017200001F0E0410B43C2F88430D2F88C3023F052
:101730001F03E16901390B43C2F88C30236813F0B1
:10174000007F0AD06268E3681B0643EA8213A2683E
:1017500043EA02733C4AC2F884303B4A136843F0C0
:1017600080631360FEF718FF0646374B1B6813F0C3
:10177000006F7FF421AFFEF70FFF801B6428F4D9C0
:1017800003201DE7304A136823F080531360FEF7EF
:1017900003FF05462C4B1B6813F0005F06D0FEF7D5
:1017A000FBFE401B6428F5D9032009E7236813F4E6
:1017B000002F01D0626B22B113F4801F18D0A36BED
:1017C000B3B9214AD2F88830216903F4403343EA9F
:1017D0008113616943EA0163C2F88830D2F88C3022
:1017E00023F4F853216A013943EA0123C2F88C300B
:1017F000236813F4001F03D0636FB3F1006F13D09D
:10180000114A136843F080531360FEF7C5FE044687
:101810000D4B1B6813F0005F14D1FEF7BDFE001BDB
:101820006428F5D90320CBE60749D1F88820206940
:10183000A3691B0443EA801302F070621343C1F8EA
:101840008830DDE70020BBE600380240FFFCFF0FD8
:101850002DE9F04105460F4616469846069C2B6832
:10186000DB6937EA03030CBF01230023B3421DD118
:10187000B4F1FF3FF3D02CB1FEF78EFEA0EB0800D1
:10188000A042ECD32A68136823F4D07313602A684B
:10189000936823F001039360202385F8693085F86D
:1018A0006A30002385F86830032000E00020BDE89E
:1018B000F081000010B50446836802691343426951
:1018C0001343C2691343016808689D4A02401343E9
:1018D0000B602268536823F44053E1680B43536064
:1018E000A369226A1A4321688B6823F43063134387
:1018F0008B602368934A934219D0934A93422AD02B
:10190000924A934240D0924A934255D0914A934290
:101910006AD0914A934200F08280904A934200F04C
:1019200099808F4A934200F0B0801022C9E002F5FE
:101930009432D2F8902002F00302032A03D8DFE8A1
:1019400002F0BF0604081022BBE00222B9E0042224
:10195000B7E00822B5E002F5FA32D2F8902002F0A2
:101960000C020C2A08D8DFE802F0BA0707070B07B9
:101970000707090707070D001022A2E00222A0E0D6
:1019800004229EE008229CE002F5F832D2F8902072
:1019900002F03002102A0DD005D9202A08D0302AB2
:1019A00004D108228DE00AB900228AE0102288E0E2
:1019B000022286E0042284E002F5F632D2F890207A
:1019C00002F0C002402A0DD005D9802A08D0C02AD2
:1019D00004D1082275E00AB9002272E0102270E0FA
:1019E00002226EE004226CE002F5F432D2F890207C
:1019F00002F44072B2F5807F0FD007D9B2F5007FB4
:101A000009D0B2F5407F04D108225AE00AB9002279
:101A100057E0102255E0022253E0042251E002F583
:101A20009232D2F8902002F44062B2F5806F0FD06B
:101A300007D9B2F5006F09D0B2F5406F04D1082282
:101A40003FE00AB901223CE010223AE0022238E0ED
:101A5000042236E002F5E032D2F8902002F440523F
:101A6000B2F5805F0FD007D9B2F5005F09D0B2F5AB
:101A7000405F04D1082224E00AB9002221E01022AC
:101A80001FE002221DE004221BE002F5DE32D2F844
:101A9000902002F44042B2F5804F0FD007D9B2F542
:101AA000004F09D0B2F5404F04D1082209E00AB92D
:101AB000002206E0102204E0022202E0042200E0FC
:101AC0000122E169B1F5004F0BD0082A00F29B809A
:101AD000DFE802F0616D7999839999998F0000226E
:101AE000EFE7082A54D8DFE802F0051722533F53E6
:101AF00053534A00FFF718FC6268530803EB400396
:101B0000B3FBF2F39BB2002023F00F02C3F34203B6
:101B100013432268D36010BDFFF716FC62685308B8
:101B200003EB4003B3FBF2F39BB20020ECE76268E7
:101B30000C4B03EB5203B3FBF2F39BB20020E3E741
:101B4000F369FFEF001001400044004000480040EE
:101B5000004C00400050004000140140007800405C
:101B6000007C00400048E801FFF7D2FA62685308A1
:101B700003EB4003B3FBF2F39BB20020C4E76268BF
:101B8000530803F58033B3FBF2F39BB20020BBE7AD
:101B900001200023B8E7FFF7C7FB636800EB5300A1
:101BA000B0FBF3F0236880B2D8600020B3E7FFF702
:101BB000CBFB636800EB5300B0FBF3F0236880B20B
:101BC000D8600020A7E76168104A02EB5102B2FB1F
:101BD000F1F292B2DA6000209DE7FFF799FA6368AC
:101BE00000EB5300B0FBF3F0236880B2D860002014
:101BF00091E761684A0802F50042B2FBF1F292B245
:101C0000DA60002087E7012085E700BF0024F400A8
:101C1000436A13F0010F06D00268536823F40033BF
:101C2000816A0B435360436A13F0020F06D00268C7
:101C3000536823F48033C16A0B435360436A13F043
:101C4000040F06D00268536823F48023016B0B4312
:101C50005360436A13F0080F06D00268536823F4F8
:101C60000043416B0B435360436A13F0100F06D0DF
:101C70000268936823F48053816B0B439360436A3B
:101C800013F0200F06D00268936823F40053C16B51
:101C90000B439360436A13F0400F0AD00268536805
:101CA00023F48013016C0B435360036CB3F5801F66
:101CB0000BD0436A13F0800F06D00268536823F4F8
:101CC0000023816C0B43536070470268536823F410
:101CD000C003416C0B435360EBE710B582B0044680
:101CE0000023C366FEF758FC2268126812F0080F42
:101CF00009D1202384F8693084F86A30002084F800
:101D0000680002B010BD6FF07E43009303460022CE
:101D10004FF400112046FFF79BFD0028E9D0032077
:101D2000EFE778B310B5044690F869300BB324237D
:101D300084F869302268136823F001031360204699
:101D4000FFF7B8FD012813D0636ABBB92268536856
:101D500023F4904353602268936823F02A0393602E
:101D60002268136843F0010313602046FFF7B5FFB4
:101D700010BD80F8683000F0FDFBD8E72046FFF783
:101D800047FFE3E701207047002301330C4A9342E9
:101D900011D80269002AF8DA036943F001030361EC
:101DA00000230133064A934207D8026912F0010F5B
:101DB000F7D100207047032070470320704700BF11
:101DC000400D030084B010B5044603A880E80E005F
:101DD000089B012B1ED1A36B23F48033A363E2681D
:101DE000164B1340E360E36823F44013E3600F9B5A
:101DF000012B0AD02046FFF7C7FF069B012B14D00A
:101E00000020BDE8104004B07047E36843F480133D
:101E1000E360EFE7E36843F04003E3602046FFF749
:101E2000B3FF4FF48033A363E7E7A36843F00603EF
:101E3000A360A36843F02003A360E1E7BFFFBDFFF9
:101E4000836823F0010383600020704708B5C368EE
:101E500023F0C043C360012909D069B9C36843F0C6
:101E60008043C3603220FEF79DFB002008BDC3689D
:101E700043F00053C360F5E70120F7E7890141F023
:101E80002001016100230133054A934205D802690C
:101E900012F0200FF7D1002070470320704700BFD9
:101EA000400D03001023036100230133054A9342D0
:101EB00005D8026912F0100FF7D1002070470320F7
:101EC000704700BF400D0300D0F800381943C0F838
:101ED000001800207047000084B0F8B5044607A839
:101EE00080E80E002546002306E003F1400204EBE3
:101EF00082020021516001330E2BF6D9A36B43F40B
:101F00000013A363119F5FB9A36B23F40013A363B2
:101F1000236843F040032360236843F08003236079
:101F20000023C4F8003E04F50066D4F80038C4F875
:101F300000380C9B012B08D0032B17D1099B83B9C8
:101F400000212046FFF7C0FF14E0099B23B90021C0
:101F50002046FFF7B9FF0DE001212046FFF7B4FF4F
:101F600008E001212046FFF7AFFF03E003212046F0
:101F7000FFF7AAFF10212046FFF780FF2046FFF75A
:101F800091FF002333617361F3610AE0C3B94FF03D
:101F90000060C2F8000900220A614FF67F328A60B1
:101FA00001330799994210D905EB431202F51061EC
:101FB000D2F800090028E9DB0020C2F80009EAE7AE
:101FC0004FF09040C2F80009E5E700230AE0CBB1EA
:101FD0004FF0904CC2F800CB002202614FF67F32E6
:101FE00082600133994212D905EB431202F5306049
:101FF000D2F800CBBCF1000FE9DB4FF0000CC2F8C7
:1020000000CBE9E74FF0006CC2F800CBE4E733699E
:1020100023F4807333610A9B012B1AD00022A26142
:102020006FF0804262611BB9A36943F01003A361A2
:10203000A2690E4B1343A3610D9B1BB1A36943F02F
:102040000803A361012F0BD00020BDE8F84004B0C5
:102050007047074A3263316B064A0A433263DDE751
:10206000A269054B1343A361EEE700BF00383C8033
:1020700000018000030001000400004008B5D0F812
:10208000043843F00203C0F804380320FEF78AFA4C
:10209000002008BDF0B58DB0002407940894099481
:1020A0000A940B94354B1A6B42F004021A631A6BB4
:1020B00002F004020192019A1A6B42F080021A6344
:1020C0001A6B02F080020292029A1A6B42F001022D
:1020D0001A631A6B02F001020392039A1A6B42F020
:1020E00002021A631A6B02F002020492049A1A6B3B
:1020F00042F008021A631A6B02F008020592059A70
:102100001A6B42F040021A631B6B03F04003069304
:10211000069B1B4F22464FF481413846FEF72CFDAB
:10212000184D224640212846FEF726FD4FF4005365
:102130000793154B0893099407A91448FEF738FC38
:102140004FF4814307930126089609940A9407A93E
:102150003846FEF72DFC40230793089609940A940D
:1021600007A92846FEF724FC8023079308940994C6
:1021700007A92846FEF71CFC0DB0F0BD0038024050
:102180000004024000180240000011100008024044
:1021900008B50948094B03604FF4E133436000235D
:1021A0008360C36003610C2242618361C361036287
:1021B0004362FFF7B6FD08BD2C0000200048004038
:1021C00008B50A484FF0A04303600623436000238C
:1021D00003614361022282610122C26103624362A0
:1021E0008262C2620363FEF7CDFC08BDE4000020FA
:1021F00070B584B0002500950195029503950F4CAC
:102200000F4B23604FF480336360A5602561A561A7
:102210002562E5620B4BA362E5600126E66125635A
:1022200066612046FEF76AFA0095019602956946B6
:102230002046FEF78DFA04B070BD00BFE404002014
:10224000002001400100000F70B584B0002500950A
:102250000195029503950F4C0F4B23604FF480338B
:102260006360A5602561A5612562E5620B4BA362F1
:10227000E5600126E661256366612046FEF73EFAC9
:1022800000950196029569462046FEF761FA04B072
:1022900070BD00BF9C000020002101400100000F24
:1022A00070B584B0002500950195029503950F4CFB
:1022B0000F4B23604FF480336360A5602561A561F7
:1022C0002562E5620B4BA362E5600126E6612563AA
:1022D00066612046FEF712FA00950196029569465E
:1022E0002046FEF735FA04B070BD00BF2C05002073
:1022F000002201400100000F30B5B5B030220021AE
:1023000028A800F037FA00242394249425942694D6
:1023100027948022214603A800F02CFAFEF7C8FC7F
:10232000204B1A6C42F080521A641B6C03F08053ED
:102330000193019B1C4B1A6842F440421A601B68CF
:1023400003F440430293029B012328934FF4A023FC
:10235000299302252E954FF480032F931923309350
:102360004FF4D873319332950923339328A8FEF79D
:10237000E5FCFEF7A5FC0F232393249525944FF449
:10238000A05326934FF480532793072123A8FEF7E9
:1023900013FF064B03931494209403A8FEF7E4FF65
:1023A00035B030BD00380240007000400001200010
:1023B00008B5FEF7D9F8FFF79FFFFFF76BFEFFF7B1
:1023C000E7FEFFF7FDFEFFF713FFFFF73DFFFFF707
:1023D00067FFFEE782B00A4B1A6C42F080521A6423
:1023E0001A6C02F080520092009A5A6C42F48042B9
:1023F0005A645B6C03F480430193019B02B0704705
:102400000038024030B591B000230B930C930D932C
:102410000E930F930368504A934207D04F4A93425A
:1024200041D04F4A93427BD011B030BD4D4B5A6CD6
:1024300042F480725A645A6C02F480720192019ADA
:102440001A6B42F004021A631A6B02F00402029241
:10245000029A1A6B42F001021A631A6B02F001022F
:102460000392039A1A6B42F002021A631B6B03F089
:1024700002030493049B03240B940C940BA93A4885
:10248000FEF796FAFF230B930C9400250D950BA9EC
:102490003648FEF78DFA0B940C940D950BA9344831
:1024A000FEF786FAC0E72F4B5A6C42F400725A646A
:1024B0005A6C02F400720592059A1A6B42F00402FB
:1024C0001A631A6B02F004020692069A1A6B42F023
:1024D00001021A631A6B02F001020792079A1A6B43
:1024E00042F002021A631B6B03F002030893089B7D
:1024F00003240B940C940BA91B48FEF759FAFF23F5
:102500000B930C9400250D950BA91848FEF750FA73
:102510000B940C940D950BA91548FEF749FA83E727
:10252000104B5A6C42F480625A645A6C02F4806216
:102530000992099A1A6B42F001021A631B6B03F0AD
:1025400001030A930A9B01230B9303230C930BA90A
:102550000648FEF72DFA67E7002001400021014000
:102560000022014000380240000802400000024002
:102570000004024000B589B000230393049305933F
:10258000069307930268144B9A4202D009B05DF893
:1025900004FB03F5F8331A6C42F480221A641A6CB7
:1025A00002F480220192019A1A6B42F008021A6327
:1025B0001B6B03F008030293029B4FF440730393D9
:1025C00002230493032306930723079303A90348D5
:1025D000FEF7EEF9DAE700BF00480040000C0240C9
:1025E00030B589B0002303930493059306930793B2
:1025F0000368B3F1A04F01D009B030BD1A4C236B72
:1026000043F001032363236B03F001030093009B5A
:102610004FF4E853039302230493032306930A23FE
:102620000793124D03A92846FEF7C2F94FF4007331
:10263000039300230493059303A92846FEF7B8F9F2
:10264000636B43F080036363636B03F08003019368
:10265000019B636C43F480436364636C03F48043C5
:102660000293029BC8E700BF00380240000002400E
:102670007047FEE7FEE7FEE7FEE7704770477047EA
:1026800008B5FDF77DFF08BD10B40F4AD2F88830B9
:1026900043F47003C2F888300C4B196841F0010113
:1026A0001960002098601C68094921401960094997
:1026B0005960196821F480211960D8604FF00063D7
:1026C00093605DF8044B704700ED00E00038024075
:1026D000FFFFF6FE10300024DFF834D0002103E0C5
:1026E0000C4B5B58435004310B480C4B42189A4238
:1026F000F6D30B4A02E0002342F8043B094B9A420E
:10270000F9D3FFF7C1FF00F011F8FFF751FE704752
:1027100000000420C4270008000000200C00002056
:102720000C00002074050020FEE7000070B50D4E7F
:102730000D4CA41BA4100025A54209D10B4E0C4C36
:1027400000F020F8A41BA4100025A54205D170BDFF
:1027500056F8253098470135EEE756F8253098476A
:102760000135F2E7BC270008BC270008BC27000899
:10277000C027000802440346934200D1704703F883
:10278000011BF9E7F8B500BFF8BC08BC9E467047CE
:0C279000F8B500BFF8BC08BC9E467047BE
:10279C000000000000000000010203040607080905
:0827AC0000000000010203041B
:0827B4009CDAFF7F0100000028
:0427BC00050200080A
:0427C000E10100082B
:0C27C40001000000100000000024F400E0
:04000005080026D9F0
:00000001FF
